:100000000C947A000C94A2000C94A2000C94A20010
:100010000C94A2000C94A2000C94A2000C94A200D8
:100020000C94A2000C94A2000C94A2000C94A200C8
:100030000C94A2000C9433060C94A2000C94A20021
:100040000C94E9050C94A2000C944E020C94280226
:100050000C94A2000C94A2000C94A2000C94A20098
:100060000C94FF060C94A200C20D260ECC0E8A0F33
:10007000CB0F0F10F50DD108D90838099E09C80912
:10008000E109D508250A250A250A5609F008CF0AEC
:10009000D60AE20AF30AF50AFC0A080B190B2F0B21
:1000A000310B0000000800020100000304070000FB
:1000B00000000000000000000000250028002B00C8
:1000C00000000000240027002A00040404040404A3
:1000D00004040202020202020303030303030102F7
:1000E00004081020408001020408102001020408C6
:1000F0001020721011241FBECFEFD8E0DEBFCDBF9D
:1001000012E0A0E0B1E0ECE7F7E202C005900D924A
:10011000A834B107D9F724E0A8E4B2E001C01D92E9
:10012000A131B207E1F710E0CAE7D0E004C021979F
:10013000FE010E942311C937D107C9F70E94EC0BB9
:100140000C94BC130C940000CF92DF92EF92FF92BC
:100150000F931F93CF93DF936C017A018B01C0E063
:10016000D0E0CE15DF0589F0D8016D918D01D60163
:10017000ED91FC910190F081E02DC6010995892B4C
:1001800011F47E0102C02196ECCFC701DF91CF911F
:100190001F910F91FF90EF90DF90CF900895FC0199
:1001A000918D828D981761F0828DDF01A80FB11DAE
:1001B0005D968C91928D9F5F9F73928F90E00895D2
:1001C0008FEF9FEF0895FC01918D828D981731F08C
:1001D000828DE80FF11D858D90E008958FEF9FEFE0
:1001E0000895FC01918D228D892F90E0805C9F4FB6
:1001F000821B91098F739927089582E493E00E94EE
:10020000F10021E0892B09F420E0822F0895FC0100
:10021000848DDF01A80FB11DA35ABF4F2C91848D8F
:1002200090E001968F739927848FA689B7892C93C4
:10023000A089B1898C9180648C93938D848D98135F
:1002400006C00288F389E02D80818F7D8083089528
:10025000EF92FF920F931F93CF93DF93EC0181E016
:10026000888F9B8D8C8D981305C0E889F9898081D2
:1002700085FD24C0F62E0B8D10E00F5F1F4F0F730E
:100280001127E02E8C8DE8120CC00FB607FCFACFB8
:10029000E889F989808185FFF5CFCE010E940701A9
:1002A000F1CF8B8DFE01E80FF11DE35AFF4FF08275
:1002B0000B8FEA89FB898081806207C0EE89FF8904
:1002C0006083E889F98980818064808381E090E09F
:1002D000DF91CF911F910F91FF90EF900895CF93F1
:1002E000DF93EC01888D8823C9F0EA89FB8980813E
:1002F00085FD05C0A889B9898C9186FD0FC00FB610
:1003000007FCF5CF808185FFF2CFA889B9898C9150
:1003100085FFEDCFCE010E940701E7CFDF91CF919E
:1003200008950E94FD0081110C9488050895EF92B4
:10033000FF920F931F93CF93DF931F92CDB7DEB73A
:10034000162F877028E0829FC0011124682F6064F7
:1003500040E085E094E079830E94D806E12E79811F
:10036000F72E8701085F1F4FF70161917F0185E03C
:1003700094E00E94F906E016F106B1F70F90DF91C4
:10038000CF911F910F91FF90EF9008956115710526
:1003900079F0FB0101900020E9F73197AF01461B8E
:1003A000570BDC01ED91FC910280F381E02D099463
:1003B00080E090E008950E9457124F925F926F92F2
:1003C0007F92EF92FF920F931F93CF93DF93CDB75E
:1003D000DEB7A1970FB6F894DEBF0FBECDBF7C018C
:1003E000FA01CB0119A2223008F42AE08E010F5D38
:1003F0001F4F422E512C612C712CBF01A301920181
:100400000E948013F901CA01015011096A3014F4E5
:10041000605D01C0695CD8016C93232B242B252BD4
:1004200061F7B801C7010E94C601A1960FB6F89402
:10043000DEBF0FBECDBFDF91CF911F910F91FF9017
:10044000EF907F906F905F904F9008950C94C6014D
:100450001F920F920FB60F9211242F933F934F9339
:100460005F936F937F938F939F93AF93BF93EF931C
:10047000FF9382E493E00E940701FF91EF91BF9107
:10048000AF919F918F917F916F915F914F913F912C
:100490002F910F900FBE0F901F9018951F920F92E3
:1004A0000FB60F9211242F938F939F93EF93FF9387
:1004B000E0915203F09153038081E0915803F09151
:1004C000590382FD12C0908180915B038F5F8F730F
:1004D00020915C03821751F0E0915B03F0E0EE5B4A
:1004E000FC4F958F80935B0301C08081FF91EF915A
:1004F0009F918F912F910F900FBE0F901F90189585
:1005000090E0FC01EE55FF4F3491FC01E252FF4FA9
:100510002491FC01E653FF4FE491EE2309F43BC024
:10052000332339F1333091F038F43130A9F03230DF
:1005300001F584B58F7D12C0373091F03830A1F0CD
:100540003430B9F4809180008F7D03C080918000A9
:100550008F77809380000DC084B58F7784BD09C0EC
:100560008091B0008F7703C08091B0008F7D809321
:10057000B000F0E0EE0FFF1FEA54FF4FA591B491D9
:100580008FB7F894EC91611103C020952E2301C020
:100590002E2B2C938FBF08958E3008F08E508770CD
:1005A000806480937C0080917A00806480937A00DC
:1005B00080917A0086FDFCCF8091780020917900AF
:1005C00090E0922B08953FB7F89480914802909163
:1005D0004902A0914A02B0914B0226B5A89B05C0E2
:1005E0002F3F19F00196A11DB11D3FBFBA2FA92FB2
:1005F000982F8827820F911DA11DB11DBC01CD012F
:1006000042E0660F771F881F991F4A95D1F708951A
:100610008F929F92AF92BF92CF92DF92EF92FF9212
:100620006B017C010E94E3024B015C01C114D10407
:10063000E104F104F1F00E94E302DC01CB0188192E
:100640009909AA09BB09883E9340A105B10570F339
:1006500021E0C21AD108E108F10888EE880E83E093
:10066000981EA11CB11CC114D104E104F10419F7B6
:10067000DDCFFF90EF90DF90CF90BF90AF909F9035
:100680008F900895CF93DF93823028F090910A04E1
:10069000986090930A0480930D0462E370E080E018
:1006A00090E00E9408036091100485E094E00E94AD
:1006B0005A0668EE73E080E090E00E94080360E371
:1006C00085E094E00E94BF06CBE4D6E4CE0101971A
:1006D000F1F760E385E094E00E94BF062197F1F70F
:1006E00060E385E094E00E94BF0683E592E0019715
:1006F000F1F760E285E094E00E94BF0660910A0491
:10070000606240E085E094E00E94D80684E0809337
:100710000B0440E06CE085E094E00E94D8060E9463
:10072000B90B82E080930C0440E066E085E094E041
:100730000E94D80640E062E085E094E00E94D8067E
:100740008BE39FE10197F1F7DF91CF910895089531
:1007500085ED8093BC008091BC0084FDFCCF10929D
:100760004E0208954091D202262F30E0240F311D11
:1007700021323105DCF420914E022430C9F4FC0111
:1007800080E090E0861758F43091D2022191DC018C
:10079000A055BD4FA30FB11D2C930196F3CF8091AF
:1007A000D202680F6093D20280E0089581E008953C
:1007B00082E00895089581E090E030915202209106
:1007C0005102321710F480E090E0919581959109E3
:1007D00008958091520290915102891730F48F5FF1
:1007E0008093520280E090E008958FEF9FEF08958C
:1007F0008091510290E020915202821B910908954C
:10080000CF92DF92EF92FF920F931F93CF93DF93DC
:100810007C01262F972F8A0180911B03882391F05A
:10082000C62FD72F6E01C40ED51ECC15DD0571F075
:100830006991D701ED91FC910190F081E02DC70104
:100840000995F3CF642F822F0E94B203C801DF9174
:10085000CF911F910F91FF90EF90DF90CF9008956F
:10086000CF93DF931F92CDB7DEB7698320911B032F
:100870002223D1F020914F02203240F021E030E0DD
:10088000FC013383228380E090E015C08091500208
:10089000E82FF0E0E45EFC4F998190838F5F8093B6
:1008A000500280934F0205C061E0CE0101960E9484
:1008B000B20381E090E00F90DF91CF910895CF9245
:1008C000DF92EF92FF921F93CF93DF93182F0E9436
:1008D000CC0262E370E080E090E00E940803C7E091
:1008E000D0E0C12CD12C7601812F0E94CC02BC011A
:1008F000990F880B990B0E9463122EE037E64CE9A2
:1009000050E40E94C21220E030E040E251E40E9434
:10091000AA1120E030E040E052E40E943D1126E6BA
:1009200036E646EE5FE30E94AA119B01AC01C701C7
:10093000B6010E943E116B017C016AE070E080E02C
:1009400090E00E940803219779F620E030E040EE25
:1009500050E4C701B6010E94AA110E941C12CB01EB
:10096000DF91CF911F91FF90EF90DF90CF9008958E
:10097000CF92DF92EF92FF920F931F938091AC0280
:100980009091AD02A091AE02B091AF02892B8A2B5B
:100990008B2B51F480E1809381001F910F91FF9088
:1009A000EF90DF90CF9008958091AC029091AD02CE
:1009B000A091AE02B091AF020197A109B109809355
:1009C000AC029093AD02A093AE02B093AF026091DF
:1009D000AA027091AB0283E00E94800261E08DE088
:1009E0000E9480028091AA029091AB02892B09F4A7
:1009F0007EC081E090E09093EC038093EB030E9433
:100A0000E30200910104109102042091030430914B
:100A100004046B017C01C01AD10AE20AF30A0091B6
:100A2000ED031091EE032091EF033091F003C01617
:100A3000D106E206F30618F36093010470930204F2
:100A400080930304909304042091EB033091EC0312
:100A50008091F5039091F6032130310589F40196D8
:100A60009093F6038093F5032091F1033091F20304
:100A700082179307C1F41092F6031092F50313C086
:100A8000892B41F48091F1039091F2039093F60346
:100A90008093F5038091F5039091F603019790936D
:100AA000F6038093F5032091F3033091F4038091D2
:100AB000F5039091F6032530310519F46AE070E0F2
:100AC00002C064E070E00E94F0100E944F0A61E0F2
:100AD00070E080E090E00E94080360E08DE01F91EC
:100AE0000F91FF90EF90DF90CF900C9480021092C6
:100AF000EC031092EB0383CF2FB7F89460913E0381
:100B000070913F0380914003909141032FBF08955E
:100B10000F931F9382E493E00E94F10018161906C8
:100B20009CF50E947C0560934A0370934B0380936D
:100B30004C0390934D03E0914203F09143030680F0
:100B4000F781E02D82E493E0099597FF22C00E948F
:100B50007C0500914A0310914B0320914C03309186
:100B60004D03DC01CB01801B910BA20BB30B009159
:100B700046031091470320914803309149038017A1
:100B80009107A207B307B8F21092670210926602AB
:100B90001DC0863279F038F48D3091F08532A1F79E
:100BA00082E090E00FC0873241F0883269F784E03C
:100BB00090E008C083E090E005C085E090E002C0CE
:100BC00081E090E090936702809366021F910F91FD
:100BD00008951F920F920FB60F9211242F933F93F7
:100BE0008F939F93AF93BF9380913E0390913F0368
:100BF000A0914003B091410330913D0323E0230FC6
:100C00002D3720F40196A11DB11D05C026E8230F44
:100C10000296A11DB11D20933D0380933E03909346
:100C20003F03A0934003B093410380914802909109
:100C30004902A0914A02B0914B020196A11DB11D3B
:100C40008093480290934902A0934A02B0934B02CA
:100C5000BF91AF919F918F913F912F910F900FBEB8
:100C60000F901F9018951F920F920FB60F9211249C
:100C70002F933F934F935F936F937F938F939F93A4
:100C8000AF93BF93EF93FF93E0910001F0910101C7
:100C90000995FF91EF91BF91AF919F918F917F91B6
:100CA0006F915F914F913F912F910F900FBE0F90D9
:100CB0001F901895CF93FC01C48121E020931B0362
:100CC000C0933C031092500210924F028385682B10
:100CD0008FED93E00E94300480914F02813208F042
:100CE00046C090914E029111FCCF92E090934E023B
:100CF00091E090934D029FEF90931A031092190385
:100D000080931803ACE1B3E028EF32E0F9019E2FA5
:100D1000921B981718F49D919193F9CF1092F702B6
:100D20008091F702CC0FC82BC093F70280914C0240
:100D3000813061F410924C028091F7028093BB00E5
:100D40008091BC0083FDF8CF85EC01C085EE8093D7
:100D5000BC0080914E028230E1F380911A038F3FF4
:100D600031F080911A03803211F080911A031092B1
:100D7000500210924F0210921B03CF9108950F93CF
:100D80001F93CF938C01C62F0E945A066C2F64606C
:100D9000C8010E945A066C2F6B7FC8010E945A0638
:100DA00083EC90E00197F1F7CF911F910F91089597
:100DB000FF920F931F93CF93DF931F92CDB7DEB7B0
:100DC0008C01F62E962F907F692F642BC8014983E2
:100DD0000E94BF0680E1F89EB00111244981642B76
:100DE000C8010F90DF91CF911F910F91FF900C944C
:100DF000BF0641E00E94D80681E090E008951F926E
:100E00000F920FB60F9211242F933F934F935F933E
:100E10006F937F938F939F93AF93BF93EF93FF93C2
:100E20008091B900887F803609F49CC068F58832CB
:100E300009F45BC090F4803109F454C038F488237D
:100E400009F4F6C0883009F44DC0F6C0883109F4C1
:100E50004CC0803209F45DC0EFC0803409F468C032
:100E600048F4803309F455C0883309F0E5C0809315
:100E70001A03D8C0803509F44FC0883509F45DC025
:100E8000883409F0D9C0D6C0883909F4C7C0A8F49D
:100E9000883709F467C038F4883609F463C08037AE
:100EA00009F460C0C9C0883809F4B8C0803909F4B1
:100EB0005FC0803809F0C0C05BC0803B09F486C0C9
:100EC00038F4803A09F466C0883A09F47FC0B4C0A7
:100ED000803C09F4A7C0883C09F4A4C0883B09F40D
:100EE0008AC0AAC08091F70210C090911903809126
:100EF0001803981770F5E091190381E08E0F809325
:100F00001903F0E0E850FD4F80818093BB0085EC31
:100F100086C080931A038EC0E091190381E08E0F82
:100F2000809319038091BB00F0E0E850FD4F80836F
:100F300090911903809118036EC0E091190381E02C
:100F40008E0F809319038091BB00F0E0E850FD4FB5
:100F5000808380914D0281116DC081E080934C02AD
:100F600084EA61C083E080934E021092F602CFCFF4
:100F70008091F602803208F051C0E091F60281E0E3
:100F80008E0F8093F6028091BB00F0E0EA52FD4F95
:100F90008083BDCF85EC8093BC0010924E0280917F
:100FA000F602803230F4E091F602F0E0EA52FD4FB2
:100FB00010826091F60270E0E091D402F091D502C7
:100FC00086ED92E009951092F60236C084E0809397
:100FD0004E021092D3021092D202E091D002F09110
:100FE000D10209958091D202811105C081E08093E0
:100FF000D2021092B002E091D30281E08E0F809372
:10100000D302F0E0E055FD4F80818093BB009091CA
:10101000D3028091D202981708F479CF85E88093A3
:10102000BC000AC085EC8093BC0010924E0204C044
:1010300010921A030E94A803FF91EF91BF91AF9104
:101040009F918F917F916F915F914F913F912F91E0
:101050000F900FBE0F901F901895F8945093AB020D
:101060004093AA026093AC027093AD028093AE02EB
:101070009093AF027894E1E8F0E01082109285003E
:10108000109284008091530280618083089560E013
:1010900080E00E944F0B6BE971E085E094E00E94D4
:1010A000260260E08BE00E944F0B81E090E00E94FE
:1010B0005F040E947F0B60E08FE00E944F0B63E0B3
:1010C00085E094E00E94F90661E080E00E944F0B09
:1010D00067EA71E085E094E00E94260261E08BE01F
:1010E0000E944F0B82E090E00E945F040E947F0B01
:1010F00061E08FE00E944F0B63E085E094E00C9488
:10110000F90663EB71E085E094E00E94260261E05D
:1011100080E00E944F0B6FEB71E085E094E00E944D
:10112000260261E087E00E944F0B809102019091BE
:10113000030183309105B9F034F48130910551F009
:10114000029771F008958530910599F07CF006972B
:1011500021F0089567EC71E00EC06CEC71E00BC0FB
:1011600061ED71E008C067ED71E005C06BED71E005
:1011700002C06FED71E085E094E00C942602CF93FD
:10118000DF93EC010E94B90B60E080E00E944F0BFE
:10119000CC30D10508F059C1FE01E55CFF4F0C943D
:1011A0002311DF91CF910C948108DF91CF910C94A2
:1011B000470865EE71E085E094E00E94260260E059
:1011C0008AE00E944F0B80915602909157020E9434
:1011D0007F0B61E080E00E944F0B60EF71E038C050
:1011E0006BEF71E085E094E00E94260260E08AE007
:1011F0000E944F0B409158025091590260915A023F
:1012000070915B022AE085E094E00E94DD0161E0DC
:1012100080E00E944F0B66E072E085E094E00E945F
:10122000260261E085E00E944F0B809104019091BD
:101230000501019711F461E001C062E085E094E0EE
:101240000E94F90661E087E00E944F0B6CE072E0BB
:1012500085E094E00E94260261E08AE00E944F0B44
:101260008091540290915502DF91CF910C947F0BA5
:1012700066E072E085E094E00E94260260E085E08E
:101280000E944F0B60915C0270915D0280915E0242
:1012900090915F020E941C12CB010E947F0B60E0C4
:1012A00088E00E944F0B60E172E042C066E072E0AD
:1012B00085E094E00E94260260E085E00E944F0BEA
:1012C0008091040190910501019711F461E001C042
:1012D00062E085E094E00E94F90660E08CE00E9404
:1012E0004F0B69E172E085E094E00E94260261E024
:1012F00080E00E944F0B6FE172E085E094E00E9475
:10130000260261E083E00E944F0B60915C027091C5
:101310005D0280915E0290915F020E941C12CB01DF
:101320000E947F0B61E087E00E944F0B61E172E059
:1013300085E094E0DF91CF910C94260263E272E0A5
:1013400085E094E00E94260260E08BE00E944F0B53
:101350008091040190910501019711F461E001C0B1
:1013600062E085E094E00E94F90661E080E00E947E
:101370004F0B6EE272E085E094E00E94260261E08D
:1013800088E00E944F0B80916002909161026CCFC7
:1013900067E372E085E094E00E94260261E080E06D
:1013A0000E944F0B6CE372E085E094E00E942602FD
:1013B00061E08BE00E944F0B809106019091070144
:1013C00053CF60E080E00E944F0B63E971E085E05D
:1013D00094E00E94260261E084E00E944F0BE091BD
:1013E0006202F0916302EE0FFF1FEE0FFF1FEC5C35
:1013F000FE4F40815181628173812AE085E094E053
:101400000E94DD0161E08AE00E944F0B69EF71E00C
:1014100085E094E00E94260261E08BE00E944F0B81
:10142000E0916202F0916302EE0FFF1FEE0FFF1FCB
:10143000E85DFE4F40815181628173812AE085E041
:1014400094E0DF91CF910C94DD01DF91CF9108956D
:10145000109265021092640280E090E00C94BF0844
:1014600090E0FC01E252FF4F2491FC01E653FF4F54
:101470008491882399F090E0880F991FFC01E05433
:10148000FF4FA591B491FC01EA54FF4F85919491CF
:101490008FB7F894EC91E22BEC938FBF0895CF9324
:1014A000DF93EC018091F3039091F403029709F527
:1014B000C130D10569F024F42097D9F460E009C067
:1014C000C230D10561F0C330D10599F460E008C0A5
:1014D00061E08091F7030E94800261E006C061E054
:1014E0008091F7030E94800260E08091F9030E94DE
:1014F00080028091F3039091F403049709F03FC0B8
:10150000C130D105B9F04CF42097C9F561E0809164
:10151000F7030E94800260E013C0C230D105D9F009
:10152000C330D10561F561E08091F7030E9480022C
:1015300060E017C060E08091F7030E94800261E0E4
:101540008091F9030E94800261E08091FB030E9478
:10155000800260E010C060E08091F7030E9480028A
:1015600061E08091F9030E94800260E08091FB03BA
:101570000E94800261E08091FD030E9480028091C0
:10158000F3039091F403059709F086C0CA30D105A2
:1015900008F082C0FE01E95BFF4F0C94231160E06C
:1015A0008091F7030E94800261E061C060E0809159
:1015B000F7030E94800261E08091F9030E9480029B
:1015C00060E05AC060E08091F7030E94800261E011
:1015D0008091F9030E94800260E08091FB030E94E9
:1015E000800261E04EC060E001C061E08091F703DD
:1015F0000E94800261E006C061E08091F7030E94D2
:10160000800260E08091F9030E94800260E00BC0DC
:1016100061E08091F7030E94800260E08091F9030D
:101620000E94800261E08091FB030E94800261E0E1
:1016300010C061E08091F7030E94800260E0809119
:10164000F9030E94800261E08091FB030E94800206
:1016500060E08091FD030E94800260E017C061E0BD
:1016600001C060E08091F7030E94800260E08091F9
:10167000F9030E94800261E08091FB030E948002D6
:1016800060E08091FD030E94800261E08091FF0391
:10169000DF91CF910C948002DF91CF910895CF9389
:1016A000DF93CDB7DEB728970FB6F894DEBF0FBE35
:1016B000CDBF28E0E0E4F1E0DE01119601900D924B
:1016C0002A95E1F720910D04261710F46FEF620FB1
:1016D000FE013196E60FF11DE60FF11D9081682F96
:1016E000690F606840E085E094E028960FB6F894B2
:1016F000DEBF0FBECDBFDF91CF910C94D806CF9245
:10170000DF92EF92FF92CF93DF936C01990FEE0877
:10171000FF08F7FE21C0E0910504F0910604019056
:10172000F081E02D6DE285E094E00995EC0144271D
:101730005527BA014C195D096E097F092AE085E039
:1017400094E00E94DD018C0F9D1FDF91CF91FF90EF
:10175000EF90DF90CF9008952AE0B701A60185E0D1
:1017600094E0DF91CF91FF90EF90DF90CF900C94B9
:10177000DD0140E061E085E094E00E94D8068BE363
:101780009FE10197F1F70895E2E4F3E0A089B189C0
:1017900082E08C93A485B5851C92A685B7858FECD5
:1017A0008C93108EA489B58986E08C93A289B38925
:1017B0008C9180618C93A289B3898C9188608C9381
:1017C000A289B3898C9180688C930288F389E02D7B
:1017D00080818F7D80830895CF93DF93CDB7DEB76F
:1017E000A4970FB6F894DEBF0FBECDBF789484B532
:1017F000826084BD84B5816084BD85B5826085BD0D
:1018000085B5816085BD80916E00816080936E009A
:10181000109281008091810082608093810080918C
:10182000810081608093810080918000816080933D
:1018300080008091B10084608093B1008091B000FD
:1018400081608093B00080917A00846080937A00F8
:1018500080917A00826080937A0080917A00816022
:1018600080937A0080917A00806880937A00109249
:10187000C10010929E0210929F021092A00210923C
:10188000A10210926C0210926D0210926E021092E0
:101890006F0260ED77E080E090E00E94080382E450
:1018A00093E090939D0280939C020E94C40B0E943F
:1018B0007C0560936C0270936D0280936E0290932E
:1018C0006F0260E771E080919C0290919D020E94FE
:1018D00026026AE070E080E090E00E94080311E0D8
:1018E000109370028DE00E94300A0E94C40B209178
:1018F000F1033091F203032E000C440B550B60E012
:1019000077E883E993E00E940411CA01B90128EE47
:1019100033E040E050E00E9404112093ED03309347
:10192000EE034093EF035093F00388E0E8E0F1E02A
:10193000DE01599601900D928A95E1F788E0E0E189
:10194000F1E0DE01519601900D928A95E1F788E071
:10195000E8E1F1E0DE01199601900D928A95E1F738
:1019600088E0E0E2F1E0DE01119601900D928A95A7
:10197000E1F710925202109251021092500210920E
:101980004F0210924E0210934D0210924C0261E0F1
:1019900082E10E94800261E083E10E9480028091E6
:1019A000B9008E7F8093B9008091B9008D7F8093BC
:1019B000B90088E48093B80085E48093BC0010925D
:1019C0000A0480910F040E9442030E94B90B88E030
:1019D0008093100460E085E094E00E945A06BE0106
:1019E000675E7F4F81E00E949701BE016F5E7F4F6F
:1019F00082E00E949701BE016F5F7F4F83E00E94EB
:101A00009701BE01675F7F4F84E00E949701E091DC
:101A10006202F0916302EE0FFF1FEE0FFF1FDF0166
:101A2000AC5CBE4F2D913D914D915C91A8E0B0E131
:101A30000E94A213E85DFE4F2081318142815381D3
:101A40000E9480132093A6023093A7024093A8021D
:101A50005093A90282E00E9442030E94B90B60E009
:101A600080E00E944F0B62E871E085E094E00E9404
:101A7000260261E080E00E944F0B63E971E085E09F
:101A800094E00E94260261E088E00E944F0BE09102
:101A90006202F0916302EE0FFF1FEE0FFF1FEC5C7E
:101AA000FE4F40815181628173812AE085E094E09C
:101AB0000E94DD0161E08CE00E944F0B69EF71E054
:101AC00085E094E00E942602E0916202F0916302B8
:101AD000EE0FFF1FEE0FFF1FE85DFE4F40815181AB
:101AE000628173812AE085E094E00E94DD016CED63
:101AF00075E080E090E00E9408030E94B90B82E04C
:101B00000E94300A83E00E94300A8BE00E94300A73
:101B100080E180938100109280001093530220E8AE
:101B20003EE330936902209368023093870020934C
:101B3000860091E1909381008093810088EB94E08E
:101B4000909301018093000110936F000E9481081F
:101B500042E0E42EF12C56E0C52ED12C0091660215
:101B6000109167021092670210926602E09164027F
:101B7000F0916502E730F10508F0A4C2EC5CFF4F7C
:101B80000C9423110430110594F4023011059CF4D7
:101B90000130110509F096C2809102019091030174
:101BA00090936502809364020E94BF088DC2063044
:101BB00011056CF087C2809102019091030101969A
:101BC000873091050CF489C281E090E086C2809153
:101BD0000201909103010197181619060CF47DC2B9
:101BE000D0920301C09202016FC20130110509F4C5
:101BF00066C20E947C058090A2029090A302A090F1
:101C0000A402B090A5029B01AC01281939094A0928
:101C10005B0949015A0131E2831633E09306A104BE
:101C2000B10408F44FC269A37AA38BA39CA30E94BA
:101C3000470869A17AA18BA19CA16093A20270932D
:101C4000A3028093A4029093A5023CC20330110525
:101C500089F044F40130110509F495C002301105F2
:101C6000E9F030C20430110559F00530110509F4CE
:101C700053C028C28091560290915702019609C024
:101C80008091560290915702181619060CF01CC24A
:101C90000197909357028093560216C21092050145
:101CA0001092040100915602109157029801012EE2
:101CB000000C440B550B6091A6027091A702809115
:101CC000A8029091A9020E948013CA01B901209331
:101CD00058023093590240935A0250935B022BE012
:101CE00030E040E050E00E942D08209154023091F5
:101CF0005502215031093093550220935402882710
:101D00009927801B910B2817390709F0DDC1109224
:101D1000550210925402D8C181E090E090930501E1
:101D20008093040100915602109157029801012EF0
:101D3000000C440B550B6091A6027091A702809194
:101D4000A8029091A9020E948013CA01B9012093B0
:101D500058023093590240935A0250935B022BE091
:101D600030E041E050E00E942D08809154029091B3
:101D70005502019690935502809354028017910763
:101D800009F0A2C1C4CF10925502109254021092D1
:101D900057021092560293C10330110509F46DC029
:101DA000ACF50130110509F4ACC00230110509F0A1
:101DB00089C110920501109204016091A6027091F0
:101DC000A7028091A8029091A9020E94611220911D
:101DD0005C0230915D0240915E0250915F020E9470
:101DE000C21220E030E044EB53E40E94AA110E94AA
:101DF0002312609358027093590280935A02909371
:101E00005B022AE030E040E050E072C0043011058F
:101E100009F44CC00530110509F054C181E090E08F
:101E200090930501809304016091A6027091A7022E
:101E30008091A8029091A9020E94611220915C02F7
:101E400030915D0240915E0250915F020E94C21289
:101E500020E030E044EB53E40E94AA110E942312D8
:101E6000609358027093590280935A0290935B02D8
:101E70002AE030E041E050E03BC020E030E040EAC2
:101E800050E460915C0270915D0280915E029091DD
:101E90005F020E943E114B015C0120E030E844EB00
:101EA00053E40E945C1287FF0FC119C020E030E0AC
:101EB00040EA50E460915C0270915D0280915E02A4
:101EC00090915F020E943D114B015C0120E030E0E7
:101ED00040E85FEB0E94521218160CF0F5C0809299
:101EE0005C0290925D02A0925E02B0925F02ECC032
:101EF0000E942D0860E273E080E090E00E940803F9
:101F0000E3C010925C0210925D0210925E02109289
:101F10005F02D5C003301105C9F05CF40130110532
:101F200041F10230110551F51092050110920401A2
:101F300025C00430110599F005301105F9F481E050
:101F400090E0909305018093040118C08091600295
:101F500090916102853091058CF0059705C08091C4
:101F600060029091610205969093610280936002F5
:101F700005C01092610210926002A1C0409104015C
:101F80005091050120E030E061E070E080E090E0F9
:101F90000E942D0897C00330110551F1ACF40130B7
:101FA000110509F488C00230110509F08BC0609159
:101FB000060170910701072E000C880B990B20E099
:101FC00030E040E050E028C004301105B9F00530A1
:101FD000110509F077C06091060170910701072E85
:101FE000000C880B990B20E030E041E050E014C079
:101FF0008091060190910701019609C08091060128
:1020000090910701823091050CF45EC00197909386
:1020100007018093060158C00E942D0855C0033067
:10202000110541F00430110591F00130110509F05E
:1020300049C041C080916202909163020196833051
:10204000910564F0109263021092620210C08091B8
:10205000620290916302019797FD05C0909363021D
:102060008093620204C0F0926302E0926202E09107
:102070006202F0916302EE0FFF1FEE0FFF1FDF0100
:10208000AC5CBE4F2D913D914D915C91A8E0B0E1CB
:102090000E94A213E85DFE4F20813181428153816D
:1020A0000E9480132093A6023093A7024093A802B7
:1020B0005093A90209C010930701009306010E94E2
:1020C000280A02C0012B31F08091640290916502D0
:1020D0000E94BF080E94910141CD9093030180931B
:1020E0000201F2CF0F931F93CF93DF93E2E4F3E06B
:1020F0001382128288EE93E0A0E0B0E0848395839F
:10210000A683B7832CE431E03183208325EC30E0D3
:102110003587248724EC30E03787268720EC30E0B1
:10212000318B208B21EC30E0338B228B22EC30E0A2
:10213000358B248B26EC30E0378B268B118E128E5C
:10214000138E148EEFEDF3E0138212828483958355
:10215000A683B7838CE591E091838083E5E0F4E08A
:10216000138212828CE691E09183808387E28483DC
:1021700080E1818782E082871386CBEED3E01B86E5
:102180001A86198218821E8A1F8A188E198E81E07B
:1021900092E09F838E8387E090E09D878C8786E026
:1021A00090E09F878E8785E090E0998B888B04E094
:1021B00010E01B8B0A8B87E00E94300A8E850E94FC
:1021C000300A88890E94300A8A890E94300A1D8A52
:1021D0001C8A19870887DF91CF911F910F9108956D
:1021E00097FB072E16F4009407D077FD09D00E94C4
:1021F000291107FC05D03EF4909581959F4F0895D5
:10220000709561957F4F0895052E97FB1EF40094FD
:102210000E941B1157FD07D00E94801307FC03D0BA
:102220004EF40C941B1150954095309521953F4FDD
:102230004F4F5F4F089590958095709561957F4FB2
:102240008F4F9F4F0895EE0FFF1F0590F491E02DE3
:102250000994AA1BBB1B51E107C0AA1FBB1FA617ED
:10226000B70710F0A61BB70B881F991F5A95A9F73F
:1022700080959095BC01CD0108955058BB27AA27A1
:102280000E9455110C9446130E94381338F00E9496
:102290003F1320F039F49F3F19F426F40C943513C2
:1022A0000EF4E095E7FB0C942F13E92F0E945713CF
:1022B00058F3BA17620773078407950720F079F47B
:1022C000A6F50C9479130EF4E0950B2EBA2FA02DE1
:1022D0000B01B90190010C01CA01A0011124FF27D3
:1022E000591B99F0593F50F4503E68F11A16F040CE
:1022F000A22F232F342F4427585FF3CF46953795CD
:102300002795A795F0405395C9F77EF41F16BA0B91
:10231000620B730B840BBAF09150A1F0FF0FBB1F3F
:10232000661F771F881FC2F70EC0BA0F621F731F88
:10233000841F48F4879577956795B795F7959E3FE5
:1023400008F0B0CF9395880F08F09927EE0F979576
:10235000879508950E94BE110C9446130E943F1366
:1023600058F00E94381340F029F45F3F29F00C9494
:102370002F1351110C947A130C9435130E94571398
:1023800068F39923B1F3552391F3951B550BBB27A4
:10239000AA2762177307840738F09F5F5F4F220FE9
:1023A000331F441FAA1FA9F335D00E2E3AF0E0E8E0
:1023B00032D091505040E695001CCAF72BD0FE2F2A
:1023C00029D0660F771F881FBB1F261737074807BE
:1023D000AB07B0E809F0BB0B802DBF01FF27935876
:1023E0005F4F3AF09E3F510578F00C942F130C94F8
:1023F0007A135F3FE4F3983ED4F38695779567951B
:10240000B795F7959F5FC9F7880F911D96958795AA
:1024100097F90895E1E0660F771F881FBB1F6217C9
:1024200073078407BA0720F0621B730B840BBA0B87
:10243000EE1F88F7E09508950E9423126894B11169
:102440000C947A1308950E945F1388F09F5798F0B8
:10245000B92F9927B751B0F0E1F0660F771F881FA9
:10246000991F1AF0BA95C9F714C0B13091F00E94C3
:102470007913B1E008950C947913672F782F88278A
:10248000B85F39F0B93FCCF3869577956795B395EA
:10249000D9F73EF490958095709561957F4F8F4F59
:1024A0009F4F08950E949E1208F48FEF089581E0D7
:1024B00090E0F8940C94BC130E949E1208F481E002
:1024C0000895E89409C097FB3EF490958095709527
:1024D00061957F4F8F4F9F4F9923A9F0F92F96E970
:1024E000BB279395F695879577956795B795F111E5
:1024F000F8CFFAF4BB0F11F460FF1BC06F5F7F4F82
:102500008F4F9F4F16C0882311F096E911C0772393
:1025100021F09EE8872F762F05C0662371F096E89C
:10252000862F70E060E02AF09A95660F771F881F6B
:10253000DAF7880F9695879597F90895990F00080F
:10254000550FAA0BE0E8FEEF16161706E807F90785
:10255000C0F012161306E407F50798F0621B730B20
:10256000840B950B39F40A2661F0232B242B252BA1
:1025700021F408950A2609F4A140A6958FEF811D44
:10258000811D08950E94D5120C9446130E943813A1
:1025900038F00E943F1320F0952311F00C942F1374
:1025A0000C94351311240C947A130E94571370F372
:1025B000959FC1F3950F50E0551F629FF001729FE8
:1025C000BB27F00DB11D639FAA27F00DB11DAA1FF7
:1025D000649F6627B00DA11D661F829F2227B00D44
:1025E000A11D621F739FB00DA11D621F839FA00DCF
:1025F000611D221F749F3327A00D611D231F849F1F
:10260000600D211D822F762F6A2F11249F57504075
:102610009AF0F1F088234AF0EE0FFF1FBB1F661FF0
:10262000771F881F91505040A9F79E3F510580F0B9
:102630000C942F130C947A135F3FE4F3983ED4F379
:10264000869577956795B795F795E7959F5FC1F75D
:10265000FE2B880F911D9695879597F9089597F908
:102660009F6780E870E060E008959FEF80EC089538
:1026700000240A9416161706180609060895002461
:102680000A9412161306140605060895092E0394DB
:10269000000C11F4882352F0BB0F40F4BF2B11F44F
:1026A00060FF04C06F5F7F4F8F4F9F4F089557FDAE
:1026B0009058440F551F59F05F3F71F04795880FB0
:1026C00097FB991F61F09F3F79F087950895121647
:1026D00013061406551FF2CF4695F1DF08C01616F3
:1026E00017061806991FF1CF8695710561050894A4
:1026F0000895E894BB2766277727CB0197F90895BB
:10270000A1E21A2EAA1BBB1BFD010DC0AA1FBB1FF5
:10271000EE1FFF1FA217B307E407F50720F0A21B67
:10272000B30BE40BF50B661F771F881F991F1A94D4
:1027300069F760957095809590959B01AC01BD01FE
:10274000CF0108950E94AD13A59F900DB49F900DE9
:10275000A49F800D911D11240895A29FB001B39FE5
:10276000C001A39F700D811D1124911DB29F700D9A
:0C277000811D1124911D0895F894FFCFE5
:10277C00A7030100010001000D1317101010110E1A
:10278C0016191D010101110E081408070406040492
:10279C0008140B05040405030100000001000000EF
:1027AC000100000003000000280000005A00000097
:1027BC000000400014005400000000002801A40098
:1027CC00F100CF00E3006F010000000030040004B2
:1027DC00F803E903DB03DA0300000000F906A400A8
:1027EC00564D4450565F317C315F564D4450560D1A
:1027FC000A005374657020496E64657865722033E5
:10280C002E3000526174696F203D002053696E6B4D
:10281C002054656D703A004D6F746F722054656D65
:10282C00703A0053656C656374204D6F6465004DA0
:10283C006F6465203D2000537465700054656D70A5
:10284C0000416E676C650052756E004A6F670052EE
:10285C006174696F004469766973696F6E733A00CD
:10286C0020506F736974696F6E3A0053746570739E
:10287C002F4469763A004D6F76652000746F3A00EC
:10288C00206465677265657300737465707300749A
:10289C006F2000436F6E74696E756F7573005370A3
:1028AC00656564203D20004A6F6720005374657095
:0828BC00732F6A6F673A2000D8
:00000001FF
